{
  "contractName": "MDTokenLockup",
  "abi": [
    {
      "constant": true,
      "inputs": [
        {
          "name": "",
          "type": "address"
        }
      ],
      "name": "privateSaleTokenLockup",
      "outputs": [
        {
          "name": "value",
          "type": "uint256"
        },
        {
          "name": "lockupPeriod",
          "type": "uint8"
        },
        {
          "name": "endTime",
          "type": "uint256"
        },
        {
          "name": "withdrawn",
          "type": "bool"
        },
        {
          "name": "withdrawnTime",
          "type": "uint256"
        },
        {
          "name": "fakeEndTime",
          "type": "uint256"
        }
      ],
      "payable": false,
      "stateMutability": "view",
      "type": "function"
    },
    {
      "constant": true,
      "inputs": [],
      "name": "TWELVE_MONTH_BONUS",
      "outputs": [
        {
          "name": "",
          "type": "uint256"
        }
      ],
      "payable": false,
      "stateMutability": "view",
      "type": "function"
    },
    {
      "constant": true,
      "inputs": [
        {
          "name": "_lockupPeriod",
          "type": "uint8"
        }
      ],
      "name": "calculateLockupEndTime",
      "outputs": [
        {
          "name": "",
          "type": "uint256"
        }
      ],
      "payable": false,
      "stateMutability": "view",
      "type": "function"
    },
    {
      "constant": true,
      "inputs": [],
      "name": "tokensSentAccidentally",
      "outputs": [
        {
          "name": "",
          "type": "uint256"
        }
      ],
      "payable": false,
      "stateMutability": "view",
      "type": "function"
    },
    {
      "constant": true,
      "inputs": [],
      "name": "endTime",
      "outputs": [
        {
          "name": "",
          "type": "uint256"
        }
      ],
      "payable": false,
      "stateMutability": "view",
      "type": "function"
    },
    {
      "constant": true,
      "inputs": [
        {
          "name": "_value",
          "type": "uint256"
        },
        {
          "name": "_lockupPeriod",
          "type": "uint8"
        }
      ],
      "name": "calculateTokensWithBonus",
      "outputs": [
        {
          "name": "total",
          "type": "uint256"
        },
        {
          "name": "bonus",
          "type": "uint256"
        }
      ],
      "payable": false,
      "stateMutability": "pure",
      "type": "function"
    },
    {
      "constant": false,
      "inputs": [
        {
          "name": "isPrivateSale",
          "type": "bool"
        }
      ],
      "name": "withdrawTokens",
      "outputs": [
        {
          "name": "",
          "type": "uint256"
        }
      ],
      "payable": false,
      "stateMutability": "nonpayable",
      "type": "function"
    },
    {
      "constant": true,
      "inputs": [
        {
          "name": "isPrivateSale",
          "type": "bool"
        }
      ],
      "name": "getLockupRecord",
      "outputs": [
        {
          "name": "",
          "type": "uint256"
        },
        {
          "name": "",
          "type": "uint8"
        },
        {
          "name": "",
          "type": "uint256"
        },
        {
          "name": "",
          "type": "bool"
        },
        {
          "name": "",
          "type": "uint256"
        }
      ],
      "payable": false,
      "stateMutability": "view",
      "type": "function"
    },
    {
      "constant": true,
      "inputs": [],
      "name": "SIX_MONTH_BONUS",
      "outputs": [
        {
          "name": "",
          "type": "uint256"
        }
      ],
      "payable": false,
      "stateMutability": "view",
      "type": "function"
    },
    {
      "constant": false,
      "inputs": [
        {
          "name": "_addresses",
          "type": "address[]"
        },
        {
          "name": "_values",
          "type": "uint256[]"
        }
      ],
      "name": "setEarlyLateBirdParticipantsHistory",
      "outputs": [],
      "payable": false,
      "stateMutability": "nonpayable",
      "type": "function"
    },
    {
      "constant": true,
      "inputs": [
        {
          "name": "isPrivateSale",
          "type": "bool"
        }
      ],
      "name": "canWithdrawTokens",
      "outputs": [
        {
          "name": "",
          "type": "bool"
        }
      ],
      "payable": false,
      "stateMutability": "view",
      "type": "function"
    },
    {
      "constant": false,
      "inputs": [
        {
          "name": "_tokenOwner",
          "type": "address"
        },
        {
          "name": "_amount",
          "type": "uint256"
        }
      ],
      "name": "depositBonus",
      "outputs": [],
      "payable": false,
      "stateMutability": "nonpayable",
      "type": "function"
    },
    {
      "constant": false,
      "inputs": [
        {
          "name": "_address",
          "type": "address"
        }
      ],
      "name": "deletePrivateSaleParticipantsHistory",
      "outputs": [],
      "payable": false,
      "stateMutability": "nonpayable",
      "type": "function"
    },
    {
      "constant": true,
      "inputs": [
        {
          "name": "",
          "type": "address"
        }
      ],
      "name": "privateSaleParticipantsHistory",
      "outputs": [
        {
          "name": "",
          "type": "uint256"
        }
      ],
      "payable": false,
      "stateMutability": "view",
      "type": "function"
    },
    {
      "constant": true,
      "inputs": [],
      "name": "MIN_LOCKUP_AMOUNT",
      "outputs": [
        {
          "name": "",
          "type": "uint256"
        }
      ],
      "payable": false,
      "stateMutability": "view",
      "type": "function"
    },
    {
      "constant": true,
      "inputs": [],
      "name": "startTime",
      "outputs": [
        {
          "name": "",
          "type": "uint256"
        }
      ],
      "payable": false,
      "stateMutability": "view",
      "type": "function"
    },
    {
      "constant": true,
      "inputs": [],
      "name": "totalTokens",
      "outputs": [
        {
          "name": "",
          "type": "uint256"
        }
      ],
      "payable": false,
      "stateMutability": "view",
      "type": "function"
    },
    {
      "constant": false,
      "inputs": [
        {
          "name": "_addresses",
          "type": "address[]"
        },
        {
          "name": "_values",
          "type": "uint256[]"
        }
      ],
      "name": "setPrivateSaleParticipantsHistory",
      "outputs": [],
      "payable": false,
      "stateMutability": "nonpayable",
      "type": "function"
    },
    {
      "constant": true,
      "inputs": [],
      "name": "owner",
      "outputs": [
        {
          "name": "",
          "type": "address"
        }
      ],
      "payable": false,
      "stateMutability": "view",
      "type": "function"
    },
    {
      "constant": true,
      "inputs": [
        {
          "name": "",
          "type": "uint256"
        }
      ],
      "name": "earlyLateBirdLockupParticipants",
      "outputs": [
        {
          "name": "",
          "type": "address"
        }
      ],
      "payable": false,
      "stateMutability": "view",
      "type": "function"
    },
    {
      "constant": false,
      "inputs": [
        {
          "name": "_sender",
          "type": "address"
        },
        {
          "name": "_value",
          "type": "uint256"
        },
        {
          "name": "_data",
          "type": "bytes"
        }
      ],
      "name": "onTokenTransfer",
      "outputs": [
        {
          "name": "success",
          "type": "bool"
        }
      ],
      "payable": false,
      "stateMutability": "nonpayable",
      "type": "function"
    },
    {
      "constant": false,
      "inputs": [
        {
          "name": "_address",
          "type": "address"
        }
      ],
      "name": "deleteEarlyLateBirdParticipantsHistory",
      "outputs": [],
      "payable": false,
      "stateMutability": "nonpayable",
      "type": "function"
    },
    {
      "constant": false,
      "inputs": [
        {
          "name": "investor",
          "type": "address"
        },
        {
          "name": "isPrivateSale",
          "type": "bool"
        }
      ],
      "name": "refund",
      "outputs": [],
      "payable": false,
      "stateMutability": "nonpayable",
      "type": "function"
    },
    {
      "constant": true,
      "inputs": [
        {
          "name": "",
          "type": "address"
        }
      ],
      "name": "earlyLateBirdParticipantsHistory",
      "outputs": [
        {
          "name": "",
          "type": "uint256"
        }
      ],
      "payable": false,
      "stateMutability": "view",
      "type": "function"
    },
    {
      "constant": false,
      "inputs": [
        {
          "name": "_sender",
          "type": "address"
        },
        {
          "name": "_tokenOwner",
          "type": "address"
        },
        {
          "name": "_amount",
          "type": "uint256"
        },
        {
          "name": "_lockupPeriod",
          "type": "uint8"
        },
        {
          "name": "_lockPrivateSale",
          "type": "bool"
        }
      ],
      "name": "lockupTokensByOwner",
      "outputs": [],
      "payable": false,
      "stateMutability": "nonpayable",
      "type": "function"
    },
    {
      "constant": false,
      "inputs": [
        {
          "name": "_tokenReceiver",
          "type": "address"
        },
        {
          "name": "_amount",
          "type": "uint256"
        }
      ],
      "name": "withdrawBonus",
      "outputs": [],
      "payable": false,
      "stateMutability": "nonpayable",
      "type": "function"
    },
    {
      "constant": true,
      "inputs": [
        {
          "name": "",
          "type": "uint256"
        }
      ],
      "name": "privateSaleLockupParticipants",
      "outputs": [
        {
          "name": "",
          "type": "address"
        }
      ],
      "payable": false,
      "stateMutability": "view",
      "type": "function"
    },
    {
      "constant": false,
      "inputs": [
        {
          "name": "_token",
          "type": "address"
        },
        {
          "name": "amount",
          "type": "uint256"
        }
      ],
      "name": "emergencyERC20Drain",
      "outputs": [],
      "payable": false,
      "stateMutability": "nonpayable",
      "type": "function"
    },
    {
      "constant": true,
      "inputs": [],
      "name": "totalTokensLocked",
      "outputs": [
        {
          "name": "",
          "type": "uint256"
        }
      ],
      "payable": false,
      "stateMutability": "view",
      "type": "function"
    },
    {
      "constant": true,
      "inputs": [
        {
          "name": "",
          "type": "address"
        }
      ],
      "name": "earlyLateBirdTokenLockup",
      "outputs": [
        {
          "name": "value",
          "type": "uint256"
        },
        {
          "name": "lockupPeriod",
          "type": "uint8"
        },
        {
          "name": "endTime",
          "type": "uint256"
        },
        {
          "name": "withdrawn",
          "type": "bool"
        },
        {
          "name": "withdrawnTime",
          "type": "uint256"
        },
        {
          "name": "fakeEndTime",
          "type": "uint256"
        }
      ],
      "payable": false,
      "stateMutability": "view",
      "type": "function"
    },
    {
      "constant": true,
      "inputs": [],
      "name": "hasEnded",
      "outputs": [
        {
          "name": "",
          "type": "bool"
        }
      ],
      "payable": false,
      "stateMutability": "view",
      "type": "function"
    },
    {
      "constant": true,
      "inputs": [
        {
          "name": "_address",
          "type": "address"
        }
      ],
      "name": "tokenBalance",
      "outputs": [
        {
          "name": "",
          "type": "uint256"
        }
      ],
      "payable": false,
      "stateMutability": "view",
      "type": "function"
    },
    {
      "constant": true,
      "inputs": [],
      "name": "THREE_MONTH_BONUS",
      "outputs": [
        {
          "name": "",
          "type": "uint256"
        }
      ],
      "payable": false,
      "stateMutability": "view",
      "type": "function"
    },
    {
      "constant": false,
      "inputs": [
        {
          "name": "newOwner",
          "type": "address"
        }
      ],
      "name": "transferOwnership",
      "outputs": [],
      "payable": false,
      "stateMutability": "nonpayable",
      "type": "function"
    },
    {
      "constant": true,
      "inputs": [],
      "name": "token",
      "outputs": [
        {
          "name": "",
          "type": "address"
        }
      ],
      "payable": false,
      "stateMutability": "view",
      "type": "function"
    },
    {
      "constant": true,
      "inputs": [],
      "name": "totalBonusTokens",
      "outputs": [
        {
          "name": "",
          "type": "uint256"
        }
      ],
      "payable": false,
      "stateMutability": "view",
      "type": "function"
    },
    {
      "inputs": [
        {
          "name": "_tokenAddress",
          "type": "address"
        },
        {
          "name": "_startTime",
          "type": "uint256"
        },
        {
          "name": "_endTime",
          "type": "uint256"
        },
        {
          "name": "_isTesting",
          "type": "bool"
        }
      ],
      "payable": false,
      "stateMutability": "nonpayable",
      "type": "constructor"
    },
    {
      "anonymous": false,
      "inputs": [
        {
          "indexed": true,
          "name": "_owner",
          "type": "address"
        },
        {
          "indexed": false,
          "name": "_amount",
          "type": "uint256"
        },
        {
          "indexed": false,
          "name": "_lockupPeriod",
          "type": "uint8"
        },
        {
          "indexed": false,
          "name": "_isPrivateSale",
          "type": "bool"
        }
      ],
      "name": "TokensLocked",
      "type": "event"
    },
    {
      "anonymous": false,
      "inputs": [
        {
          "indexed": true,
          "name": "_to",
          "type": "address"
        },
        {
          "indexed": false,
          "name": "_amount",
          "type": "uint256"
        },
        {
          "indexed": false,
          "name": "_isPrivateSale",
          "type": "bool"
        }
      ],
      "name": "TokensWithdrawn",
      "type": "event"
    },
    {
      "anonymous": false,
      "inputs": [
        {
          "indexed": true,
          "name": "_to",
          "type": "address"
        },
        {
          "indexed": false,
          "name": "_amount",
          "type": "uint256"
        },
        {
          "indexed": false,
          "name": "_isPrivateSale",
          "type": "bool"
        }
      ],
      "name": "TokensRefunded",
      "type": "event"
    },
    {
      "anonymous": false,
      "inputs": [
        {
          "indexed": true,
          "name": "_owner",
          "type": "address"
        },
        {
          "indexed": false,
          "name": "_amount",
          "type": "uint256"
        }
      ],
      "name": "BonusDeposited",
      "type": "event"
    },
    {
      "anonymous": false,
      "inputs": [
        {
          "indexed": true,
          "name": "_to",
          "type": "address"
        },
        {
          "indexed": false,
          "name": "_amount",
          "type": "uint256"
        }
      ],
      "name": "BonusWithdrawn",
      "type": "event"
    },
    {
      "anonymous": false,
      "inputs": [
        {
          "indexed": true,
          "name": "previousOwner",
          "type": "address"
        },
        {
          "indexed": true,
          "name": "newOwner",
          "type": "address"
        }
      ],
      "name": "OwnershipTransferred",
      "type": "event"
    }
  ],
  "bytecode": "0x6060604052341561000f57600080fd5b604051608080611cff8339810160405280805191906020018051919060200180519190602001805160008054600160a060020a03191633600160a060020a039081169190911790915590925085161515905061006a57600080fd5b82821161007657600080fd5b42821161008257600080fd5b60058054600160a060020a031916600160a060020a039590951694909417909355600191909155600255600c805460ff1916911515919091179055611c33806100cc6000396000f3006060604052600436106101a85763ffffffff60e060020a60003504166304199f0681146101ad5780631131d85314610217578063207e6b5a1461023c57806322f30357146102555780633197cbb614610268578063325deeb41461027b578063354b2b46146102af5780633a44ee01146102c7578063443caa2c146103145780634e3c904d146103275780635ea6d153146103b857806363ac0f99146103e45780636a0495e3146104065780636cd70012146104255780636d0f30a91461044457806378e97925146104575780637e1c0c091461046a578063865125aa1461047d5780638da5cb5b1461050c5780639724579f1461053b578063a4c0ed3614610551578063b0cf5fc9146105b6578063b4bab048146105d5578063bc27919c146105f9578063c2fe48c514610618578063d28803601461064b578063d51447e71461066d578063db0e16f114610683578063dc5bf961146106a5578063ea0122a5146106b8578063ecb70fb7146106d7578063eedc966a146106ea578063f09ea69914610709578063f2fde38b1461071c578063fc0c546a1461073b578063fc5d92441461074e575b600080fd5b34156101b857600080fd5b6101cc600160a060020a0360043516610761565b604051808781526020018660028111156101e257fe5b60ff16815260200185815260200184151515158152602001838152602001828152602001965050505050505060405180910390f35b341561022257600080fd5b61022a61079c565b60405190815260200160405180910390f35b341561024757600080fd5b61022a60ff600435166107a1565b341561026057600080fd5b61022a610829565b341561027357600080fd5b61022a610851565b341561028657600080fd5b61029760043560ff60243516610857565b60405191825260208201526040908101905180910390f35b34156102ba57600080fd5b61022a60043515156108e7565b34156102d257600080fd5b6102df6004351515610a41565b60405194855260ff909316602085015260408085019290925215156060840152608083019190915260a0909101905180910390f35b341561031f57600080fd5b61022a610a92565b341561033257600080fd5b6103b6600460248135818101908301358060208181020160405190810160405280939291908181526020018383602002808284378201915050505050509190803590602001908201803590602001908080602002602001604051908101604052809392919081815260200183836020028082843750949650610a9795505050505050565b005b34156103c357600080fd5b6103d06004351515610b74565b604051901515815260200160405180910390f35b34156103ef57600080fd5b6103b6600160a060020a0360043516602435610bce565b341561041157600080fd5b6103b6600160a060020a0360043516610d78565b341561043057600080fd5b61022a600160a060020a0360043516610dc2565b341561044f57600080fd5b61022a610dd4565b341561046257600080fd5b61022a610de1565b341561047557600080fd5b61022a610de7565b341561048857600080fd5b6103b6600460248135818101908301358060208181020160405190810160405280939291908181526020018383602002808284378201915050505050509190803590602001908201803590602001908080602002602001604051908101604052809392919081815260200183836020028082843750949650610e6195505050505050565b341561051757600080fd5b61051f610f39565b604051600160a060020a03909116815260200160405180910390f35b341561054657600080fd5b61051f600435610f48565b341561055c57600080fd5b6103d060048035600160a060020a03169060248035919060649060443590810190830135806020601f82018190048102016040519081016040528181529291906020840183838082843750949650610f7095505050505050565b34156105c157600080fd5b6103b6600160a060020a0360043516610fec565b34156105e057600080fd5b6103b6600160a060020a03600435166024351515611036565b341561060457600080fd5b61022a600160a060020a03600435166112fa565b341561062357600080fd5b6103b6600160a060020a036004358116906024351660443560ff60643516608435151561130c565b341561065657600080fd5b6103b6600160a060020a036004351660243561147b565b341561067857600080fd5b61051f6004356115e1565b341561068e57600080fd5b6103b6600160a060020a03600435166024356115ef565b34156106b057600080fd5b61022a61168f565b34156106c357600080fd5b6101cc600160a060020a0360043516611695565b34156106e257600080fd5b6103d06116d0565b34156106f557600080fd5b61022a600160a060020a03600435166116d8565b341561071457600080fd5b61022a611755565b341561072757600080fd5b6103b6600160a060020a036004351661175a565b341561074657600080fd5b61051f6117e9565b341561075957600080fd5b61022a6117f8565b600a60205260009081526040902080546001820154600283015460038401546004850154600590950154939460ff9384169492939091169186565b604281565b600042818360028111156107b157fe5b14156107d1576107ca816276a70063ffffffff6117fe16565b9050610823565b60018360028111156107df57fe5b14156107f8576107ca8162ed4e0063ffffffff6117fe16565b600283600281111561080657fe5b141561082357610820816301e1338063ffffffff6117fe16565b90505b92915050565b600061084b60045461083f60035461083f610de7565b9063ffffffff61180d16565b90505b90565b60025481565b600080808084600281111561086857fe5b14156108765750600a6108aa565b600184600281111561088457fe5b14156108925750601e6108aa565b60028460028111156108a057fe5b14156108aa575060425b6108cb60646108bf878463ffffffff61181f16565b9063ffffffff61184316565b91506108dd858363ffffffff6117fe16565b9250509250929050565b6000806000806108f685610b74565b151561090157600080fd5b61090b338661185a565b805460018201549194506109219160ff16610857565b845460035492945090925061093c919063ffffffff61180d16565b600355600454610952908263ffffffff61180d16565b600490815560038401805460ff191660011790554290840155600554600160a060020a031663a9059cbb338460006040516020015260405160e060020a63ffffffff8516028152600160a060020a0390921660048301526024820152604401602060405180830381600087803b15156109ca57600080fd5b6102c65a03f115156109db57600080fd5b5050506040518051151560011490506109f357600080fd5b33600160a060020a03167fa995a272df1bb18670c48272b0035c51cb0074b02b60ded72745a68e1cacfb308387604051918252151560208201526040908101905180910390a2509392505050565b600080600080600080610a54338861185a565b805460018201549192509060ff166002811115610a6d57fe5b60028301546003840154600490940154929a919950975060ff90921695509350915050565b601e81565b6000805433600160a060020a03908116911614610ab357600080fd5b8151835114610ac157600080fd5b5060005b8251811015610b6f576000838281518110610adc57fe5b90602001906020020151600160a060020a031614158015610b1257506000828281518110610b0657fe5b90602001906020020151115b1515610b1d57600080fd5b818181518110610b2957fe5b9060200190602002015160066000858481518110610b4357fe5b90602001906020020151600160a060020a03168152602081019190915260400160002055600101610ac5565b505050565b600080610b81338461185a565b905060008160000154118015610bb65750806002015442101580610bb65750600c5460ff168015610bb6575080600501544210155b8015610bc75750600381015460ff16155b9392505050565b6000805433600160a060020a03908116911614610bea57600080fd5b600554600160a060020a031663dd62ed3e843060006040516020015260405160e060020a63ffffffff8516028152600160a060020a03928316600482015291166024820152604401602060405180830381600087803b1515610c4b57600080fd5b6102c65a03f11515610c5c57600080fd5b5050506040518051915050600081118015610c775750600082115b8015610c835750808211155b1515610c8e57600080fd5b600554600160a060020a03166323b872dd84308560006040516020015260405160e060020a63ffffffff8616028152600160a060020a0393841660048201529190921660248201526044810191909152606401602060405180830381600087803b1515610cfa57600080fd5b6102c65a03f11515610d0b57600080fd5b505050604051805190501515610d2057600080fd5b600454610d33908363ffffffff6117fe16565b600455600160a060020a0383167f9f50b49d5968e7d7c5bf7e73743d28ad1bc84f633046e14d2889544d24463b848360405190815260200160405180910390a2505050565b60005433600160a060020a03908116911614610d9357600080fd5b600160a060020a0381161515610da857600080fd5b600160a060020a0316600090815260076020526040812055565b60076020526000908152604090205481565b6821e19e0c9bab24000081565b60015481565b600554600090600160a060020a03166370a0823130836040516020015260405160e060020a63ffffffff8416028152600160a060020a039091166004820152602401602060405180830381600087803b1515610e4257600080fd5b6102c65a03f11515610e5357600080fd5b505050604051805191505090565b6000805433600160a060020a03908116911614610e7d57600080fd5b8151835114610e8b57600080fd5b5060005b8251811015610b6f576000838281518110610ea657fe5b90602001906020020151600160a060020a031614158015610edc57506000828281518110610ed057fe5b90602001906020020151115b1515610ee757600080fd5b818181518110610ef357fe5b9060200190602002015160076000858481518110610f0d57fe5b90602001906020020151600160a060020a03168152602081019190915260400160002055600101610e8f565b600054600160a060020a031681565b6009805482908110610f5657fe5b600091825260209091200154600160a060020a0316905081565b6000610f7a6116d0565b15610f8457600080fd5b60055433600160a060020a03908116911614610fa257506000610bc7565b6000825111610fb057600080fd5b610fe2848484600081518110610fc257fe5b016020015160f860020a900460f860020a0260f860020a9004600061189e565b5060019392505050565b60005433600160a060020a0390811691161461100757600080fd5b600160a060020a038116151561101c57600080fd5b600160a060020a0316600090815260066020526040812055565b6000805481908190819033600160a060020a0390811691161461105857600080fd5b600160a060020a0386161580159061107e5750600554600160a060020a03878116911614155b801561109c575030600160a060020a031686600160a060020a031614155b15156110a757600080fd5b6110b1868661185a565b805490945092506000831180156110cd5750600384015460ff16155b80156110dc5750836002015442105b15156110e757600080fd5b6003546110fa908463ffffffff61180d16565b60035561110685611a9c565b9150600090505b815481101561118a5785600160a060020a0316828281548110151561112e57fe5b600091825260209091200154600160a060020a0316141561118257818181548110151561115757fe5b6000918252602090912001805473ffffffffffffffffffffffffffffffffffffffff1916905561118a565b60010161110d565b84156111dc57600160a060020a0386166000908152600a6020526040812081815560018101805460ff199081169091556002820183905560038201805490911690556004810182905560050155611224565b600160a060020a038616600090815260086020526040812081815560018101805460ff1990811690915560028201839055600382018054909116905560048101829055600501555b600554600160a060020a031663a9059cbb878560006040516020015260405160e060020a63ffffffff8516028152600160a060020a0390921660048301526024820152604401602060405180830381600087803b151561128357600080fd5b6102c65a03f1151561129457600080fd5b5050506040518051151560011490506112ac57600080fd5b85600160a060020a03167ffaa79c796008810af924dd559529050d41ac7d20e37ad2452431d029863209678487604051918252151560208201526040908101905180910390a2505050505050565b60066020526000908152604090205481565b6000805433600160a060020a0390811691161461132857600080fd5b600554600160a060020a031663dd62ed3e863060006040516020015260405160e060020a63ffffffff8516028152600160a060020a03928316600482015291166024820152604401602060405180830381600087803b151561138957600080fd5b6102c65a03f1151561139a57600080fd5b50505060405180519150506000811180156113be57506821e19e0c9bab2400008410155b80156113ca5750808411155b15156113d557600080fd5b6113e18685858561189e565b600554600160a060020a03166323b872dd86308760006040516020015260405160e060020a63ffffffff8616028152600160a060020a0393841660048201529190921660248201526044810191909152606401602060405180830381600087803b151561144d57600080fd5b6102c65a03f1151561145e57600080fd5b50505060405180519050151561147357600080fd5b505050505050565b60005433600160a060020a0390811691161461149657600080fd5b600160a060020a038216158015906114bc5750600554600160a060020a03838116911614155b80156114da575030600160a060020a031682600160a060020a031614155b15156114e557600080fd5b6000811180156114f757506004548111155b151561150257600080fd5b600454611515908263ffffffff61180d16565b600455600554600160a060020a031663a9059cbb838360006040516020015260405160e060020a63ffffffff8516028152600160a060020a0390921660048301526024820152604401602060405180830381600087803b151561157757600080fd5b6102c65a03f1151561158857600080fd5b5050506040518051151560011490506115a057600080fd5b81600160a060020a03167fa48e1ff74bd0f1b584708d4ea741299b0e243b1dc795f94756cb5fe9147cf80e8260405190815260200160405180910390a25050565b600b805482908110610f5657fe5b60005433600160a060020a0390811691161461160a57600080fd5b60008054600160a060020a038085169263a9059cbb929091169084906040516020015260405160e060020a63ffffffff8516028152600160a060020a0390921660048301526024820152604401602060405180830381600087803b151561167057600080fd5b6102c65a03f1151561168157600080fd5b505050604051805150505050565b60035481565b600860205260009081526040902080546001820154600283015460038401546004850154600590950154939460ff9384169492939091169186565b600254421190565b600554600090600160a060020a03166370a0823183836040516020015260405160e060020a63ffffffff8416028152600160a060020a039091166004820152602401602060405180830381600087803b151561173357600080fd5b6102c65a03f1151561174457600080fd5b50505060405180519150505b919050565b600a81565b60005433600160a060020a0390811691161461177557600080fd5b600160a060020a038116151561178a57600080fd5b6000805473ffffffffffffffffffffffffffffffffffffffff1916600160a060020a03838116918217928390559091167f8be0079c531659141344cd1fd0a4f28419497f9722a3daafe3b4186f6b6457e060405160405180910390a350565b600554600160a060020a031681565b60045481565b600082820183811015610bc757fe5b60008282111561181957fe5b50900390565b600082820283158061183b575082848281151561183857fe5b04145b1515610bc757fe5b600080828481151561185157fe5b04949350505050565b600081156118805750600160a060020a0382166000908152600a60205260409020610823565b50600160a060020a0382166000908152600860205260409020610823565b600160a060020a03841615156118b357600080fd5b600260ff831611156118c457600080fd5b6821e19e0c9bab2400008310156118da57600080fd5b80156119bd57600160a060020a0384166000908152600a60205260409020541561190357600080fd5b600160a060020a0384166000908152600760205260408120541180156119415750600160a060020a0384166000908152600760205260409020548311155b151561194c57600080fd5b600160a060020a0384166000908152600a602052604090206119749085908590859085611ab4565b600b8054600181016119868382611bca565b506000918252602090912001805473ffffffffffffffffffffffffffffffffffffffff1916600160a060020a038616179055611a96565b600160a060020a038416600090815260086020526040902054156119e057600080fd5b600160a060020a038416600090815260066020526040812054118015611a1e5750600160a060020a0384166000908152600660205260409020548311155b1515611a2957600080fd5b600160a060020a0384166000908152600860205260409020611a519085908590859085611ab4565b6009805460018101611a638382611bca565b506000918252602090912001805473ffffffffffffffffffffffffffffffffffffffff1916600160a060020a0386161790555b50505050565b60008115611aac5750600b611750565b506009611750565b8154600090611ac9908663ffffffff6117fe16565b835560ff84166002811115611ada57fe5b60018085018054909160ff1990911690836002811115611af657fe5b02179055506001830154611b0c9060ff166107a1565b6002840155600c5460ff1615611b4c575061012c611b46611b398260ff600188011663ffffffff61181f16565b429063ffffffff6117fe16565b60058401555b6003808401805460ff1916905554611b6a908663ffffffff6117fe16565b600355600160a060020a0386167f6f57a3947460581dc6bfc9660a7f3f04dc363b0f616d93159a1d615729358ab686868560405192835260ff909116602083015215156040808301919091526060909101905180910390a2505050505050565b815481835581811511610b6f57600083815260209020610b6f91810190830161084e91905b80821115611c035760008155600101611bef565b50905600a165627a7a72305820c3e00f45d1e3b4538c08334658255386ed0f7583c29ffb2f7ec1db56739280b70029",
  "source": "pragma solidity ^0.4.17;\n\nimport './math/SafeMath.sol';\nimport './token/ERC677Receiver.sol';\nimport './token/ERC20.sol';\nimport './ownership/Ownable.sol';\n\n/**\n * @title The MDTokenLockup contract\n * @dev Lock up MDT and receive bonus\n * @author MDT Team\n */\ncontract MDTokenLockup is ERC677Receiver, Ownable {\n    using SafeMath for uint256;\n\n    enum LockupPeriod { THREE_MONTH, SIX_MONTH, TWELVE_MONTH }\n\n    uint256 public constant MIN_LOCKUP_AMOUNT = 625 * 10**18; // minimum lockup aount - 625 MDT\n    uint256 public constant THREE_MONTH_BONUS = 10; // 10% bonus for 3 months lockup\n    uint256 public constant SIX_MONTH_BONUS = 30; // 30% bonus for 6 months lockup\n    uint256 public constant TWELVE_MONTH_BONUS = 66; // 66% bonus for 12 months lockup\n\n    uint256 public startTime;\n    uint256 public endTime;\n    uint256 public totalTokensLocked;\n    uint256 public totalBonusTokens;\n    ERC20 public token;\n\n    // Token Lockup for the investor\n    struct Lockup {\n        uint256 value;\n        LockupPeriod lockupPeriod;\n        uint256 endTime;\n        bool withdrawn;\n        uint256 withdrawnTime;\n        uint256 fakeEndTime; // for testing only\n    }\n\n    // Investor address to tokens purchased mapping during early and late bird sale\n    mapping (address => uint256) public earlyLateBirdParticipantsHistory;\n\n    // Investor address to tokens purchased mapping during private sale\n    mapping (address => uint256) public privateSaleParticipantsHistory;\n\n    // Early and late bird token lockup mapping\n    mapping (address => Lockup) public earlyLateBirdTokenLockup;\n\n    // Early and late bird token lockup participants array\n    address[] public earlyLateBirdLockupParticipants;\n\n    // Private sale token lockup mapping\n    mapping (address => Lockup) public privateSaleTokenLockup;\n\n    // Private sale token lockup participants array\n    address[] public privateSaleLockupParticipants;\n\n    bool private isTesting;\n\n    // Events\n    event TokensLocked(address indexed _owner, uint256 _amount, uint8 _lockupPeriod, bool _isPrivateSale);\n    event TokensWithdrawn(address indexed _to, uint256 _amount, bool _isPrivateSale);\n    event TokensRefunded(address indexed _to, uint256 _amount, bool _isPrivateSale);\n    event BonusDeposited(address indexed _owner, uint256 _amount);\n    event BonusWithdrawn(address indexed _to, uint256 _amount);\n\n    modifier onlyDuringLockEvent {\n        // require(now >= startTime && now <= endTime);\n        require(!hasEnded());\n        _;\n    }\n\n    modifier onlyAfterLockEvent {\n        require(hasEnded() || isTesting);\n        _;\n    }\n\n    /**\n    * @dev MDTokenLockup contract constructor.\n    * @param _tokenAddress address The MDT contract address.\n    * @param _startTime uint256 The start time of the lockup event.\n    * @param _endTime uint256 The end time of the lockup event.\n    */\n    function MDTokenLockup(address _tokenAddress, uint256 _startTime, uint256 _endTime, bool _isTesting) public {\n        require(_tokenAddress != address(0));\n        require(_endTime > _startTime);\n        require(_endTime > now);\n\n        token = ERC20(_tokenAddress);\n        startTime = _startTime;\n        endTime = _endTime;\n        isTesting = _isTesting;\n    }\n\n    /**\n     * @dev Set early/late bird participants history. (contract owner only)\n     * @param _addresses address[] Addresses that investors used to participate in early/late bird sale.\n     * @param _values uint256[] Amount of tokens purchased in early/late bird sale.\n     */\n    function setEarlyLateBirdParticipantsHistory(address[] _addresses, uint256[] _values) public onlyOwner {\n        require(_addresses.length == _values.length);\n\n        for (uint i = 0; i < _addresses.length; i++) {\n            require(_addresses[i] != address(0) && _values[i] > 0);\n            earlyLateBirdParticipantsHistory[_addresses[i]] = _values[i];\n        }\n    }\n\n    /**\n     * @dev Set private sale participants history. (contract owner only)\n     * @param _addresses address[] Addresses that investors used to participate in private sale.\n     * @param _values uint256[] Amount of tokens purchased in early/late private sale.\n     */\n    function setPrivateSaleParticipantsHistory(address[] _addresses, uint256[] _values) public onlyOwner {\n        require(_addresses.length == _values.length);\n\n        for (uint i = 0; i < _addresses.length; i++) {\n            require(_addresses[i] != address(0) && _values[i] > 0);\n            privateSaleParticipantsHistory[_addresses[i]] = _values[i];\n        }\n    }\n\n    /**\n     * @dev Delete early/late bird participants history. (contract owner only)\n     * @param _address address Address to be deleted.\n     */\n    function deleteEarlyLateBirdParticipantsHistory(address _address) public onlyOwner {\n        require(_address != address(0));\n        delete earlyLateBirdParticipantsHistory[_address];\n    }\n\n    /**\n     * @dev Delete private sale participants history. (contract owner only)\n     * @param _address address Address to be deleted.\n     */\n    function deletePrivateSaleParticipantsHistory(address _address) public onlyOwner {\n        require(_address != address(0));\n        delete privateSaleParticipantsHistory[_address];\n    }\n\n    /**\n     * @dev Get token balance for a wallet address.\n     * @param _address address Address to be queried.\n     * @return the token balance of a wallet address.\n     */\n    function tokenBalance(address _address) public view returns (uint256) {\n        return token.balanceOf(_address);\n    }\n\n    /**\n     * @dev Get token balance of this contract.\n     * @return the token balance of this contract.\n     */\n    function totalTokens() public view returns (uint256) {\n        return token.balanceOf(this);\n    }\n\n    /**\n     * @dev Get amount of tokens that sent accidentally to this contract.\n     * @return amount of tokens that sent accidentally.\n     */\n    function tokensSentAccidentally() public view returns (uint256) {\n        return totalTokens().sub(totalTokensLocked).sub(totalBonusTokens);\n    }\n\n    /**\n     * @dev Check if the lockup event ends.\n     * @return true if the lockup event ended.\n     */\n    function hasEnded() public view returns (bool) {\n        return now > endTime;\n    }\n\n    function getTokenLockup(address sender, bool isPrivateSale) private view returns (Lockup storage) {\n        if (isPrivateSale) {\n            return privateSaleTokenLockup[sender];\n        } else {\n            return earlyLateBirdTokenLockup[sender];\n        }\n    }\n\n    function getLockupParticipants(bool isPrivateSale) private view returns (address[] storage) {\n        if (isPrivateSale) {\n            return privateSaleLockupParticipants;\n        } else {\n            return earlyLateBirdLockupParticipants;\n        }\n    }\n\n    /**\n     * @dev Get token lockup record.\n     * @param isPrivateSale bool If it is asked the private sale record.\n     * @return a tuple of token lockup record (value, lockupPeriod, endTime, withdrawn, withdrawnTime).\n     */\n    function getLockupRecord(bool isPrivateSale) public view returns (uint256, uint8, uint256, bool, uint256) {\n        Lockup storage lockup = getTokenLockup(msg.sender, isPrivateSale);\n        return (lockup.value, uint8(lockup.lockupPeriod), lockup.endTime, lockup.withdrawn, lockup.withdrawnTime);\n    }\n\n    /**\n     * @dev Callback function when someone send tokens to this contract via the ERC677 contract's transferAndCall function.\n     * @param _sender address The caller address.\n     * @param _value uint The amount to be transferred.\n     * @param _data bytes The extra data to be passed to the receiving contract.\n     * @return true if it is called by the assigned token contract.\n     */\n    function onTokenTransfer(address _sender, uint _value, bytes _data) public onlyDuringLockEvent returns (bool success) {\n        // only accept callback from assigned token contract\n        if (msg.sender != address(token)) {\n            return false;\n        }\n\n        require(_data.length > 0);\n        lockupTokens(_sender, _value, uint8(_data[0]), false);\n        return true;\n    }\n\n    function lockupTokens(address _sender, uint256 _amount, uint8 _lockupPeriod, bool lockPrivateSale) private {\n        require(_sender != address(0));\n        require(_lockupPeriod <= uint8(LockupPeriod.TWELVE_MONTH));\n        require(_amount >= MIN_LOCKUP_AMOUNT);\n        if (lockPrivateSale) {\n            require(privateSaleTokenLockup[_sender].value == 0);\n            require(privateSaleParticipantsHistory[_sender] > 0 && _amount <= privateSaleParticipantsHistory[_sender]);\n            _lockupTokens(_sender, _amount, _lockupPeriod, privateSaleTokenLockup[_sender], lockPrivateSale);\n            privateSaleLockupParticipants.push(_sender);\n        } else {\n            require(earlyLateBirdTokenLockup[_sender].value == 0);\n            require(earlyLateBirdParticipantsHistory[_sender] > 0 && _amount <= earlyLateBirdParticipantsHistory[_sender]);\n            _lockupTokens(_sender, _amount, _lockupPeriod, earlyLateBirdTokenLockup[_sender], lockPrivateSale);\n            earlyLateBirdLockupParticipants.push(_sender);\n        }\n    }\n\n    function _lockupTokens(address _sender, uint256 _amount, uint8 _lockupPeriod, Lockup storage lockup, bool lockPrivateSale) private {\n        lockup.value = lockup.value.add(_amount);\n        lockup.lockupPeriod = LockupPeriod(_lockupPeriod);\n        lockup.endTime = calculateLockupEndTime(lockup.lockupPeriod);\n        if (isTesting) {\n            uint256 base = 5 minutes;\n            lockup.fakeEndTime = now.add(base.mul(_lockupPeriod + 1));\n        }\n        lockup.withdrawn = false;\n        totalTokensLocked = totalTokensLocked.add(_amount);\n\n        TokensLocked(_sender, _amount, _lockupPeriod, lockPrivateSale);\n    }\n\n    /**\n     * @dev Lockup tokens. (contract owner only)\n     * @dev Caller must call approve method of token contract before calling this function.\n     * @param _sender address The investor address.\n     * @param _tokenOwner address The token owner. (must approve the lockup contract to transfer his tokens)\n     * @param _amount uint256 Amount of tokens to be locked.\n     * @param _lockupPeriod uint8 The lockup period.\n     * @param _lockPrivateSale bool If it is a private sale lockup.\n     */\n    function lockupTokensByOwner(address _sender, address _tokenOwner, uint256 _amount, uint8 _lockupPeriod, bool _lockPrivateSale) public onlyOwner {\n        uint256 allowance = token.allowance(_tokenOwner, this);\n        require(allowance > 0 && _amount >= MIN_LOCKUP_AMOUNT && _amount <= allowance);\n        lockupTokens(_sender, _amount, _lockupPeriod, _lockPrivateSale);\n        // transfer tokens to the contract only if tokens can be locked\n        require(token.transferFrom(_tokenOwner, this, _amount));\n    }\n\n    /**\n     * @dev Deposit bonus tokens to the contract. (contract owner only)\n     * @param _tokenOwner address The token owner.\n     * @param _amount uint256 Amount of bonus tokens.\n     */\n    function depositBonus(address _tokenOwner, uint256 _amount) public onlyOwner {\n        uint256 allowance = token.allowance(_tokenOwner, this);\n        require(allowance > 0 && _amount > 0 && _amount <= allowance);\n        require(token.transferFrom(_tokenOwner, this, _amount));\n        totalBonusTokens = totalBonusTokens.add(_amount);\n        BonusDeposited(_tokenOwner, _amount);\n    }\n\n    /**\n     * @dev Withdraw bonus tokens from the contract. (contract owner only)\n     * @param _tokenReceiver address Wallet for receiving tokens.\n     * @param _amount uint256 Amount of bonus tokens.\n     */\n    function withdrawBonus(address _tokenReceiver, uint256 _amount) public onlyOwner {\n        require(_tokenReceiver != address(0) && _tokenReceiver != address(token) && _tokenReceiver != address(this));\n        require(_amount > 0 && _amount <= totalBonusTokens);\n        totalBonusTokens = totalBonusTokens.sub(_amount);\n        require(token.transfer(_tokenReceiver, _amount) == true);\n        BonusWithdrawn(_tokenReceiver, _amount);\n    }\n\n    /**\n     * @dev Calculate token with bonus after lockup period.\n     * @param _value uint256 Amount of tokens for lockup.\n     * @param _lockupPeriod LockupPeriod The lockup period, which must be 0 (3 months), 1 (6 months) and 2 (12 months).\n     * @return a tuple of tokens plus bonus and bonus.\n     */\n    function calculateTokensWithBonus(uint256 _value, LockupPeriod _lockupPeriod) public pure returns (uint256 total, uint256 bonus) {\n        uint256 bonusPercent;\n        if (_lockupPeriod == LockupPeriod.THREE_MONTH) {\n            bonusPercent = THREE_MONTH_BONUS;\n        } else if (_lockupPeriod == LockupPeriod.SIX_MONTH) {\n            bonusPercent = SIX_MONTH_BONUS;\n        } else if (_lockupPeriod == LockupPeriod.TWELVE_MONTH) {\n            bonusPercent = TWELVE_MONTH_BONUS;\n        }\n        bonus = _value.mul(bonusPercent).div(100);\n        total = _value.add(bonus);\n    }\n\n    /**\n     * @dev Calculate lockup end date. End time is calculated based on the lockup period.\n     * @dev Lockup end time = now + lockup period.\n     * @param _lockupPeriod LockupPeriod The lockup period, which must be 0 (3 months), 1 (6 months) and 2 (12 months).\n     * @return lockup end time.\n     */\n    function calculateLockupEndTime(LockupPeriod _lockupPeriod) public view returns (uint256) {\n        uint256 _endTime = now;\n        if (_lockupPeriod == LockupPeriod.THREE_MONTH) {\n            _endTime = _endTime.add(90 days);\n        } else if (_lockupPeriod == LockupPeriod.SIX_MONTH) {\n            _endTime = _endTime.add(180 days);\n        } else if (_lockupPeriod == LockupPeriod.TWELVE_MONTH) {\n            _endTime = _endTime.add(1 years);\n        }\n        return _endTime;\n    }\n\n    /**\n     * @dev Check if the sender can withdraw tokens.\n     * @param isPrivateSale bool If it is private sale lockup.\n     * @return true if the sender can withdraw tokens.\n     */\n    function canWithdrawTokens(bool isPrivateSale) public view returns (bool) {\n        Lockup storage lockup = getTokenLockup(msg.sender, isPrivateSale);\n        return lockup.value > 0 && (now >= lockup.endTime || (isTesting && now >= lockup.fakeEndTime)) && lockup.withdrawn == false;\n    }\n\n    /**\n     * @dev Withdraw locked tokens with bonus. (can only be called after lockup event)\n     * @param isPrivateSale bool If it is private sale lockup.\n     * @return amount of tokens and bonus.\n     */\n    function withdrawTokens(bool isPrivateSale) public /*onlyAfterLockEvent*/ returns (uint256) {\n        require(canWithdrawTokens(isPrivateSale));\n        Lockup storage lockup = getTokenLockup(msg.sender, isPrivateSale);\n        var (tokenWithBonus, bonus) = calculateTokensWithBonus(lockup.value, lockup.lockupPeriod);\n        totalTokensLocked = totalTokensLocked.sub(lockup.value);\n        totalBonusTokens = totalBonusTokens.sub(bonus);\n        lockup.withdrawn = true;\n        lockup.withdrawnTime = now;\n        require(token.transfer(msg.sender, tokenWithBonus) == true);\n        TokensWithdrawn(msg.sender, tokenWithBonus, isPrivateSale);\n        return tokenWithBonus;\n    }\n\n    /**\n     * @dev Refund locked tokens to investor. (contract owner only)\n     * @param investor address The address of the token to transfer.\n     * @param isPrivateSale bool If it is private sale lockup.\n     */\n    function refund(address investor, bool isPrivateSale) public onlyOwner {\n        require(investor != address(0) && investor != address(token) && investor != address(this));\n        Lockup storage lockup = getTokenLockup(investor, isPrivateSale);\n        uint256 lockedAmount = lockup.value;\n        require(lockedAmount > 0 && !lockup.withdrawn && now < lockup.endTime);\n        totalTokensLocked = totalTokensLocked.sub(lockedAmount);\n        // Delete address from the early and late bird lockup array\n        address[] storage lockupParticipants = getLockupParticipants(isPrivateSale);\n        for (uint i = 0; i < lockupParticipants.length; i++) {\n            if (lockupParticipants[i] == investor) {\n                delete lockupParticipants[i];\n                break;\n            }\n        }\n        if (isPrivateSale) {\n            delete privateSaleTokenLockup[investor];\n        } else {\n            delete earlyLateBirdTokenLockup[investor];\n        }\n        require(token.transfer(investor, lockedAmount) == true);\n        TokensRefunded(investor, lockedAmount, isPrivateSale);\n    }\n\n    /**\n     * @dev Transfer to owner any tokens send by mistake to this contract. (contract owner only)\n     * @param _token ERC20 The address of the token to transfer.\n     * @param amount uint256 The amount to be transfered.\n     */\n    function emergencyERC20Drain(ERC20 _token, uint256 amount) public onlyOwner {\n        _token.transfer(owner, amount);\n    }\n}",
  "sourcePath": "/Users/Gary/Desktop/SourceCode/mdt-contracts/contracts/MDTokenLockup.sol",
  "compiler": {
    "name": "solc",
    "version": "0.4.18+commit.9cf6e910.Emscripten.clang"
  },
  "schemaVersion": "1.0.1",
  "updatedAt": "2018-02-04T13:03:18.421Z"
}